S01800004763634170706C69636174696F6E31332E7372656327
S113000071C000009FC0000077C0000075C00000F0
S113001073C0000071C000006FC000006DC000001C
S11300206BC0000069C0000067C0000065C000002C
S113003063C0000061C000005FC000005DC000003C
S11300405BC0000059C0000057C0000055C000004C
S113005053C0000051C000004FC000004DC000005C
S11300604BC0000049C0000047C0000045C000006C
S113007043C0000041C000003FC000003DC000007C
S11300803BC0000039C0000037C0000035C000008C
S113009033C0000031C000002FC000002DC000009C
S11300A02BC0000029C0000027C0000025C00000AC
S11300B023C0000021C000001FC000001DC00000BC
S11300C01BC0000019C0000017C0000015C00000CC
S11300D013C0000011C000000FC000000DC00000DC
S11300E00BC0000011241FBECFEFD1E2DEBFCDBF95
S11300F000E00CBF89D08DC083CF83B78D7F83BFD1
S113010083B7846083BF83B7886083BF089583B750
S1130110816083BF08958DB381608DBBE9E6F0E013
S11301208081816080838081826080838AB18E7FB8
S11301308AB908958DB38E7F8DBB089583B78E7F62
S113014083BF08951F920F920FB60F9211240BB61E
S11301500F922F933F934F935F936F937F938F935C
S11301609F93AF93BF93EF93FF93E8DF2FEF87EA5B
S113017091E6215080409040E1F700C000002FEF4D
S113018087EA91E6215080409040E1F700C00000EA
S1130190FF91EF91BF91AF919F918F917F916F915B
S11301A05F914F913F912F910F900BBE0F900FBE17
S11301B00F901F9018957894AECF08959EDFA7DF17
S11301C083B7816083BF889583B78E7F83BF08958B
S11301D084B1806884B985B1806885B92FEF87EAD6
S11301E091E6215080409040E1F700C0000085B1C5
S11301F08F7785B92FEF87EA91E6215080409040B0
S1130200E1F700C000000895D6DFD8DFE1DF92DF18
S1090210FBCFF894FFCFC0
S9030000FC
