:1000000071C0000081C000007FC000007DC0000002
:100010007BC0000079C0000077C0000075C0000000
:1000200073C0000071C000006FC000006DC0000010
:100030006BC0000069C0000067C0000065C0000020
:1000400063C0000061C000005FC000005DC0000030
:100050005BC0000059C0000057C0000055C0000040
:1000600081C0000051C000004FC000004DC0000022
:100070004BC0000049C0000047C0000045C0000060
:1000800043C0000041C000003FC000003DC0000070
:100090003BC0000039C0000037C0000035C0000080
:1000A00033C0000031C000002FC000002DC0000090
:1000B0002BC0000029C0000027C0000025C00000A0
:1000C00023C0000021C000001FC000001DC00000B0
:1000D0001BC0000019C0000017C0000015C00000C0
:1000E00013C0000011241FBECFEFD1E2DEBFCDBF91
:1000F00000E00CBF22E0A0E0B2E001C01D92A836F3
:10010000B207E1F7DBD0EEC07BCF87E68093C40077
:100110001092C500E0ECF0E080818D7F8083A1EC3F
:10012000B0E08C9180618C938C9188608C93E2EC30
:10013000F0E08081866080838C918B7F8C938081BE
:100140008F77808380818F7B808380818F7D808388
:1001500080818F7E80838081877F808380818E7F76
:10016000808308951F920F920FB60F9211240BB641
:100170000F922F933F934F935F936F937F938F9340
:100180009F93AF93BF93EF93FF9380910002909161
:100190000102AC014F5F5F4F509301024093000298
:1001A0002EB5FC01EC5FFD4F20839A013695279513
:1001B00036952795ABE7B4E186D09695879564E6AA
:1001C000689F9001699F300D1124CA01821B930B17
:1001D0009093010280930002209102023091030269
:1001E00082179307C1F4A9014F5F5F4F9A013695BB
:1001F00027953695279567D09695879564E6689FED
:100200009001699F300D1124CA01821B930B9093BA
:10021000030280930202FF91EF91BF91AF919F91F2
:100220008F917F916F915F914F913F912F910F909F
:100230000BBE0F900FBE0F901F9018958CB5806469
:100240008CBD84B1877F84B984B1886084B98CB552
:1002500080688CBD089580910202909103022091E4
:100260000002309101028217930739F1FC01EC5F23
:10027000FD4F80818093C6008091C00085FFFCCF38
:1002800040910202509103024F5F5F4F9A013695F1
:10029000279536952795ABE7B4E115D096958795C8
:1002A00064E6689F9001699F300D1124CA01821B8A
:1002B000930B90930302809302020895789425DFB4
:1002C000BDDFC9DFFECFA29FB001B39FC001A39FD6
:1002D000700D811D1124911DB29F700D811D11247F
:0802E000911D0895F894FFCF71
:00000001FF
