S01700004763634170706C69636174696F6E342E7372656358
S113000071C00000A4C00000CDC00000F6C0000014
S11300101FC1000048C1000071C100009AC1000066
S1130020C3C1000071C000006FC000006DC00000BB
S11300306BC0000069C0000067C0000065C000001C
S113004063C0000061C000005FC000005DC000002C
S11300505BC0000059C0000057C0000055C000003C
S113006053C0000051C000004FC000004DC000004C
S11300704BC0000049C0000047C0000045C000005C
S113008043C0000041C000003FC000003DC000006C
S11300903BC0000039C0000037C0000035C000007C
S11300A033C0000031C000002FC000002DC000008C
S11300B02BC0000029C0000027C0000025C000009C
S11300C023C0000021C000001FC000001DC00000AC
S11300D01BC0000019C0000017C0000015C00000BC
S11300E013C0000011241FBECFEFD1E2DEBFCDBF8D
S11300F000E00CBF22E0A0E0B2E001C01D92AE30EF
S1130100B207E1F710D09CC27BCF84B1806884B978
S113011085B1806885B9089584B1806884B985B152
S11301208F7785B908954CE850E061E080E067D1AD
S113013045E850E060E081E062D12FEF83ED90E389
S1130140215080409040E1F700C00000F6CF1F929C
S11301500F920FB60F9211240BB60F922F933F9369
S11301604F935F936F937F938F939F93AF93BF93BB
S1130170EF93FF93E0910002F09101021995FF9132
S1130180EF91BF91AF919F918F917F916F915F910B
S11301904F913F912F910F900BBE0F900FBE0F9078
S11301A01F9018951F920F920FB60F9211240BB641
S11301B00F922F933F934F935F936F937F938F93FC
S11301C09F93AF93BF93EF93FF93E0910202F0915B
S11301D003021995FF91EF91BF91AF919F918F9178
S11301E07F916F915F914F913F912F910F900BBE33
S11301F00F900FBE0F901F9018951F920F920FB67D
S11302000F9211240BB60F922F933F934F935F934A
S11302106F937F938F939F93AF93BF93EF93FF93CA
S1130220E0910402F09105021995FF91EF91BF91BD
S1130230AF919F918F917F916F915F914F913F917A
S11302402F910F900BBE0F900FBE0F901F9018951B
S11302501F920F920FB60F9211240BB60F922F9389
S11302603F934F935F936F937F938F939F93AF933A
S1130270BF93EF93FF93E0910602F0910702199563
S1130280FF91EF91BF91AF919F918F917F916F916A
S11302905F914F913F912F910F900BBE0F900FBE26
S11302A00F901F9018951F920F920FB60F92112462
S11302B00BB60F922F933F934F935F936F937F935C
S11302C08F939F93AF93BF93EF93FF93E0910802B3
S11302D0F09109021995FF91EF91BF91AF919F9110
S11302E08F917F916F915F914F913F912F910F90DB
S11302F00BBE0F900FBE0F901F9018951F920F9278
S11303000FB60F9211240BB60F922F933F934F9376
S11303105F936F937F938F939F93AF93BF93EF9369
S1130320FF93E0910A02F0910B021995FF91EF916E
S1130330BF91AF919F918F917F916F915F914F91F9
S11303403F912F910F900BBE0F900FBE0F901F90F7
S113035018951F920F920FB60F9211240BB60F929D
S11303602F933F934F935F936F937F938F939F93B9
S1130370AF93BF93EF93FF93E0910C02F0910D02C2
S11303801995FF91EF91BF91AF919F918F917F91BB
S11303906F915F914F913F912F910F900BBE0F90F2
S11303A00FBE0F901F9018951F920F920FB60F92C9
S11303B011240BB60F922F933F934F935F936F9338
S11303C07F938F939F93AF93BF93EF93FF93E091AA
S11303D00E02F0910F021995FF91EF91BF91AF9129
S11303E09F918F917F916F915F914F913F912F9149
S11303F00F900BBE0F900FBE0F901F901895E82F13
S1130400F0E0EE0FFF1FE050FE4F51834083F8945D
S1130410843068F49AB121E030E0082E02C0220F43
S1130420331F0A94E2F7209529232AB90CC09DB101
S113043021E030E0082E02C0220F331F0A94E2F7B5
S1130440209529232DB99DB321E030E0082E02C068
S1130450220F331F0A94E2F7292B2DBB843008F0B6
S113046077C0837090E06130E1F018F06230B1F150
S113047052C0E9E6F0E04081880F991F21E030E0A6
S1130480B901082E02C0660F771F0A94E2F701969D
S113049002C0220F331F8A95E2F7262B242B2083D8
S11304A0CDC0E9E6F0E06081880F991FAC014F5F91
S11304B05F4F21E030E0D90102C0AA0FBB1F4A956B
S11304C0E2F7AD01462B4083908102C0220F331F17
S11304D08A95E2F7209529232083B0C0E9E6F0E06D
S11304E05081880F991F21E030E0B901082E02C025
S11304F0660F771F0A94E2F7462F40954523408301
S11305004081019602C0220F331F8A95E2F720959D
S11305102423208393C0E9E6F0E04081880F991FEB
S1130520BC016F5F7F4F21E030E0D90102C0AA0F08
S1130530BB1F6A95E2F79A2F90959423908390813C
S113054002C0220F331F8A95E2F7292B208376C03D
S1130550837090E06130E1F018F06230B1F152C084
S1130560EAE6F0E04081880F991F21E030E0B9010C
S1130570082E02C0660F771F0A94E2F7019602C0A4
S1130580220F331F8A95E2F7262B242B208356C093
S1130590EAE6F0E06081880F991FAC014F5F5F4F7E
S11305A021E030E0D90102C0AA0FBB1F4A95E2F74F
S11305B0AD01462B4083908102C0220F331F8A95E0
S11305C0E2F720952923208339C0EAE6F0E0508140
S11305D0880F991F21E030E0B901082E02C0660F90
S11305E0771F0A94E2F7462F4095452340834081C4
S11305F0019602C0220F331F8A95E2F72095242327
S113060020831CC0EAE6F0E04081880F991FBC01FA
S11306106F5F7F4F21E030E0D90102C0AA0FBB1FFA
S11306206A95E2F79A2F909594239083908102C063
S1130630220F331F8A95E2F7292B2083789408959B
S1070640F894FFCF58
S9030000FC
