S01800004763634170706C69636174696F6E31322E7372656328
S113000071C0000079C0000077C0000075C0000016
S113001073C0000071C000006FC000006DC000001C
S11300206BC0000069C0000067C0000065C000002C
S113003063C0000061C000005FC000005DC000003C
S11300405BC0000059C0000057C0000055C000004C
S113005053C0000051C000004FC000006CC000003D
S11300604BC0000049C0000047C0000045C000006C
S113007043C0000041C000003FC000003DC000007C
S11300803BC0000039C0000037C0000035C000008C
S113009033C0000031C000002FC000002DC000009C
S11300A02BC0000029C0000027C0000025C00000AC
S11300B023C0000021C000001FC000001DC00000BC
S11300C01BC0000019C0000017C0000015C00000CC
S11300D013C0000011C000000FC000000DC00000DC
S11300E00BC0000011241FBECFEFD1E2DEBFCDBF95
S11300F000E00CBF2ED03FC083CF84B5816084BDA7
S113010084B5826084BD85B5877F85BD85B58160F2
S113011085BD85B5846085BD8AEF87BD84B580685B
S113012084BD84B58F7B84BD84B1806884B981E04B
S113013080936E0008951F920F920FB60F921124B0
S11301408F9380E487BD8F910F900FBE0F901F9007
S1130150189584B1806884B985B1806885B92FEF1A
S11301608BE792E9215080409040E1F700C0000005
S10D01707894C3DFFFCFF894FFCFAB
S9030000FC
