S01700004763634170706C69636174696F6E362E7372656356
S113000071C0000081C000007FC000007DC00000FE
S11300107BC0000079C0000077C0000075C00000FC
S113002073C0000071C000006FC000006DC000000C
S11300306BC0000069C0000067C0000065C000001C
S113004063C0000061C000005FC000005DC000002C
S11300505BC0000059C0000057C0000055C000003C
S113006053C0000051C000004FC000004DC000004C
S11300704BC000004AC0000047C0000045C000005B
S113008043C0000041C000003FC000003DC000006C
S11300903BC0000039C0000037C0000035C000007C
S11300A033C0000031C000002FC000002DC000008C
S11300B02BC0000029C0000027C0000025C000009C
S11300C023C0000021C000001FC000001DC00000AC
S11300D01BC0000019C0000017C0000015C00000BC
S11300E013C0000011241FBECFEFD1E2DEBFCDBF8D
S11300F000E00CBF22E0A0E0B2E001C01D92A230FB
S1130100B207E1F7D8D006C17BCF1F920F920FB68A
S11301100F9211240BB60F922F933F934F935F933B
S11301206F937F938F939F93AF93BF93EF93FF93BB
S1130130E0910002F09101021995FF91EF91BF91B6
S1130140AF919F918F917F916F915F914F913F916B
S11301502F910F900BBE0F900FBE0F901F9018950C
S1130160ECE7F0E080818F77808380818F7B8083D0
S1130170ABE7B0E08C91877F8C9380818F7E808306
S11301808081877F808380818B7F808380818D7F46
S1130190808380818E7F8083EAE7F0E080818068BD
S11301A080838081816080838081886080830895DA
S11301B087E68093C4001092C500E0ECF0E08081F3
S11301C08D7F8083A1ECB0E08C9180618C938C91C5
S11301D088608C93E2ECF0E08081866080838C916F
S11301E08B7F8C9380818F77808380818F7B8083CA
S11301F080818F7D808380818F7E80838081877FD3
S1130200808380818E7F80830895EAE7F0E0808197
S1130210806480830895909301028093000208957E
S1130220CF93DF9300D01F92CDB7DEB7F894E0915F
S11302307800F091790020E030E024303105C4F4F6
S1130240CF016AE070E03FD046EF4603C001479F0C
S1130250900D11248E0F9F1FE1E0F0E0EC0FFD1FC5
S1130260E20FF31F805D80832F5F3F4FFB01E5CFDB
S113027023E030E0332384F08091C00085FFFCCF7D
S1130280E1E0F0E0EC0FFD1FE20FF31F80818093AB
S1130290C60021503109EECF8091C00085FFFCCF0C
S11302A08AE08093C60078940F900F900F900F907F
S11302B0DF91CF91089578947BDF52DF80E191E064
S11302C0AADFA3DFFFCF97FB072E16F4009406D016
S11302D077FD08D00BD007FC05D03EF490958195AE
S11302E09F4F0895709561957F4F0895AA1BBB1B7E
S11302F051E107C0AA1FBB1FA617B70710F0A61B22
S1130300B70B881F991F5A95A9F780959095BC0142
S10B0310CD010895F894FFCF1C
S9030000FC
