S01800004763634170706C69636174696F6E31302E737265632A
S113000071C0000086C0000084C0000082C00000EF
S113001080C000007EC000007CC000007AC00000E8
S113002078C0000076C0000074C0000072C00000F8
S113003070C000006EC000006CC000006AC0000008
S113004068C0000066C0000064C0000062C0000018
S113005060C000005EC000005CC000005AC0000028
S113006058C0000056C0000054C0000052C0000038
S113007050C000004EC000004CC000004AC0000048
S113008048C0000046C0000044C0000042C0000058
S113009040C000003EC000003CC000003AC0000068
S11300A038C0000036C0000034C0000032C0000078
S11300B030C000002EC000002CC000002AC0000088
S11300C028C0000026C0000024C0000022C0000098
S11300D020C000001EC000001CC000001AC00000A8
S11300E018C0000011241FBECFEFD1E2DEBFCDBF88
S11300F000E00CBF12E0A0E0B2E0E2E5F2E000E0D4
S11301000BBF02C007900D92A032B107D9F77CD083
S11301109EC076CFE8EBF0E0808184608083E9EBD9
S1130120F0E080818D7F808380818E7F808308953D
S1130130ECEBF0E09081946A90839091BC00992359
S1130140E4F79091B900987F9830C1F4880F8093B8
S1130150BB00ECEBF0E080818468808380818F7D3C
S113016080838091BC008823E4F78091B900887F64
S1130170883131F0803231F482E0089580E00895CE
S113018081E0089583E008958093BB00ECEBF0E0F8
S11301908081846880838091BC008823E4F7809107
S11301A0B900887F883221F0803321F482E00895F9
S11301B081E0089583E00895ECEBF0E080818469A8
S11301C080838091BC0084FFFCCF08957C018B0167
S11301D0A1DF88E0ADDF813061F4C0E0D0E0C0177A
S11301E0D1073CF4F701EC0FFD1F8081CDDF219690
S11301F0F6CFE2DF2FEF87EA91E62150804090406E
S1130200E1F700C00000E5CFCF93DF93CDB7DEB7B1
S1130210A0970FB6F894DEBF0FBECDBF80E2E0E03A
S1130220F2E0DE01119601900D928A95E1F760E209
S113023070E0CE010196CADF80E090E0A0960FB690
S1130240F894DEBF0FBECDBFDF91CF910895F8942F
S1050250FFCFDA
S1130252646174612073656E64696E67206275748B
S1130262206E6F7420726563656976696E670A0031
S9030000FC
