S01700004763634170706C69636174696F6E352E7372656357
S113000071C000008EC000008CC000008AC00000D7
S113001088C0000086C0000084C0000082C00000C8
S113002080C000007EC000007CC000007AC00000D8
S113003078C0000076C0000074C0000072C00000E8
S113004070C000006EC000006CC000006AC00000F8
S113005068C0000066C0000064C0000062C0000008
S113006060C000005FC000005CC00000A4C00000CD
S113007058C0000056C0000054C0000052C0000028
S113008050C000004EC000004CC000004AC0000038
S113009048C0000046C0000044C0000042C0000048
S11300A040C000003EC000003CC000003AC0000058
S11300B038C0000036C0000034C0000032C0000068
S11300C030C000002EC000002CC000002AC0000078
S11300D028C0000026C0000024C0000022C0000088
S11300E020C0000011241FBECFEFD1E2DEBFCDBF80
S11300F000E00CBF12E0A0E0B2E0E6E5F3E000E0CF
S11301000BBF02C007900D92A830B107D9F722E0C7
S1130110A8E0B2E001C01D92AC30B207E1F710D103
S113012018C16ECF1F920F920FB60F9211240BB607
S11301300F922F933F934F935F936F937F938F937C
S11301409F93AF93BF93CF93DF93EF93FF93C1EC50
S1130150D0E088818F77888384B1806884B985B141
S11301608F7785B9E0910A02F0910B0219952FEF70
S113017083ED90E3215080409040E1F700C00000FF
S113018085B1806885B9888180688883FF91EF9103
S1130190DF91CF91BF91AF919F918F917F916F919B
S11301A05F914F913F912F910F900BBE0F900FBE17
S11301B00F901F9018951F920F920FB60F92112453
S11301C00BB60F922F933F934F935F936F937F934D
S11301D08F939F93AF93BF93EF93FF93E1ECF0E082
S11301E080818F7B808384B1806884B985B18F7767
S11301F085B98091C00085FFFCCF8AE08093C6005A
S11302002FEF87EA91E6215080409040E1F700C04B
S11302100000E0910802F0910902199585B1806807
S113022085B9E1ECF0E0808180648083FF91EF91F7
S1130230BF91AF919F918F917F916F915F914F91FA
S11302403F912F910F900BBE0F900FBE0F901F90F8
S1130250189590930B0280930A02089590930902D3
S113026080930802089587E68093C4001092C50025
S1130270E0ECF0E080818D7F8083A1ECB0E08C9194
S113028080618C938C9188608C93E2ECF0E08081A7
S1130290866080838C918B7F8C9380818F77808321
S11302A080818F7B808380818F7D808380818F7E1E
S11302B080838081877F808380818E7F80838C91FF
S11302C080648C938C9180688C930895CF93DF9392
S11302D0CDB7DEB727970FB6F894DEBF0FBECDBFFC
S11302E087E0E0E0F2E0DE01119601900D928A953C
S11302F0E1F720E030E02730310584F4E1E0F0E07C
S1130300EC0FFD1FE20FF31F80818093C6008091E4
S1130310C00085FFFCCF2F5F3F4FEDCF27960FB670
S1130320F894DEBF0FBECDBFDF91CF9108959091B9
S1130330C6008091C00085FFFCCF9093C60008954D
S1130340789491DF87E991E084DF86E691E086DFA7
S1090350FFCFF894FFCF7B
S10B035653485245594153007C
S9030000FC
