:1000000071C0000086C0000084C0000082C00000F3
:1000100080C000007EC000007CC000007AC00000EC
:1000200078C0000076C0000074C0000072C00000FC
:1000300070C000006EC000006CC000006AC000000C
:1000400068C0000066C0000064C0000062C000001C
:1000500060C000005EC000005CC000005AC000002C
:1000600058C0000056C0000054C0000052C000003C
:1000700050C000004EC000004CC000004AC000004C
:1000800048C0000046C0000044C0000042C000005C
:1000900040C000003EC000003CC000003AC000006C
:1000A00038C0000036C0000034C0000032C000007C
:1000B00030C000002EC000002CC000002AC000008C
:1000C00028C0000026C0000024C0000022C000009C
:1000D00020C000001EC000001CC000001AC00000AC
:1000E00018C0000011241FBECFEFD1E2DEBFCDBF8C
:1000F00000E00CBF12E0A0E0B2E0EAEDF1E000E0C9
:100100000BBF02C007900D92A235B107D9F75FD09F
:1001100062C076CF8CB580658CBD8CB5877F8CBD79
:100120008CB58B7F8CBD8CB581608CBD14B884B1CF
:10013000816084B984B1826084B984B1846084B9F7
:1001400085B1816085B9089585B18E7F85B908959F
:10015000CF93DF93CDB7DEB7C155D1090FB6F89471
:10016000DEBF0FBECDBF81E5E0E0F2E0DE0111961B
:1001700001900D928A95E1F780E090E0803591053D
:100180009CF4E1E0F0E0EC0FFD1FE80FF91F208187
:100190002EBD0DB407FEFDCFEFE8F1E03197F1F78A
:1001A00000C000000196EACFFFEF23ED80E3F1509D
:1001B00020408040E1F700C00000CF5ADF4F0FB66B
:1001C000F894DEBF0FBECDBFDF91CF910895A2DFBF
:0A01D000BBDFBEDFFECFF894FFCFC7
:1001DA00646174612073656E64696E67204E4F2096
:1001EA004D4F5245205448414E2035302043484116
:1001FA0052532057485920626563617573652069B7
:10020A0020616D206E6F742073757265206F662091
:10021A00776879206F722077687379206E6F740A15
:02022A000000D2
:00000001FF
