S01800004763634170706C69636174696F6E31312E7372656329
S113000071C0000081C000007FC000007DC00000FE
S11300107BC0000079C0000077C0000075C00000FC
S113002073C0000071C000006FC000006DC000000C
S11300306BC0000069C0000067C0000065C000001C
S113004063C0000061C000005FC000005DC000002C
S11300505BC0000059C0000057C0000055C000003C
S113006053C0000051C000004FC000004DC000004C
S11300704BC0000049C0000047C0000045C000005C
S113008043C0000041C000003FC000003DC000006C
S11300903BC0000039C0000037C00000C7C00000EA
S11300A033C0000031C000002FC000002DC000008C
S11300B02BC0000029C0000027C0000025C000009C
S11300C023C0000021C000001FC000001DC00000AC
S11300D01BC0000019C0000017C0000015C00000BC
S11300E013C0000011241FBECFEFD1E2DEBFCDBF8D
S11300F000E00CBF22E0A0E0B2E001C01D92A936EE
S1130100B207E1F70DD11EC17BCF80E18093BA0025
S1130110ECEBF0E08081856480838BB181608BB9E6
S11301208BB182608BB98AB18E7F8AB98AB18D7F97
S11301308AB9089587E68093C4001092C500E0EC64
S1130140F0E080818D7F8083A1ECB0E08C918061B0
S11301508C938C9188608C93E2ECF0E080818660D3
S113016080838C918B7F8C9380818F778083808137
S11301708F7B808380818F7D808380818F7E80834D
S11301808081877F808380818E7F808308958091A2
S1130190030290910402209101023091020282171D
S11301A0930739F1FC01EB5FFD4F80818093C6001A
S11301B08091C00085FFFCCF40910302509104025E
S11301C04F5F5F4F9A013695279536952795ABE794
S11301D0B4E1A9D09695879564E6689F9001699FDC
S11301E0300D1124CA01821B930B90930402809357
S11301F0030208958091B900887F809300028038BB
S113020049F0803951F0883859F0883961F48BEB22
S113021090E008958BEB90E008958BEB90E00895C7
S11302208BEB90E0089580E090E008951F920F9288
S11302300FB60F9211240BB60F922F933F934F9347
S11302405F936F937F938F939F93AF93BF93EF933A
S1130250FF93D0DF009709F447C020910102309149
S11302600202A9014F5F5F4F5093020240930102C3
S1130270FC018081F901EB5FFD4F80839A01369583
S1130280279536952795ABE7B4E14DD0969587959C
S113029064E6689F9001699F300D1124CA01821B96
S11302A0930B9093020280930102209103023091F8
S11302B0040282179307C1F4A9014F5F5F4F9A01AB
S11302C036952795369527952ED09695879564E68D
S11302D0689F9001699F300D1124CA01821B930B02
S11302E09093040280930302ECEBF0E08081806839
S11302F08083FF91EF91BF91AF919F918F917F91F7
S11303006F915F914F913F912F910F900BBE0F9082
S11303100FBE0F901F9018957894F7DE0BCF0895B9
S1130320FBDF35DFFECFA29FB001B39FC001A39FC7
S1130330700D811D1124911DB29F700D811D11241A
S10B0340911D0895F894FFCF0C
S9030000FC
