:1000000071C0000079C0000077C0000075C000001A
:1000100073C0000071C000006FC000006DC0000020
:100020006BC0000069C0000067C0000065C0000030
:1000300063C0000061C000005FC000005DC0000040
:100040005BC0000059C0000057C0000055C0000050
:1000500053C0000051C000004FC000004DC0000060
:100060004BC0000049C0000047C0000045C0000070
:1000700043C0000041C000003FC000003DC0000080
:100080003BC0000039C0000037C0000035C0000090
:1000900033C0000031C000002FC000002DC00000A0
:1000A0002BC0000029C0000027C0000025C00000B0
:1000B00023C0000021C000001FC000001DC00000C0
:1000C0001BC0000019C0000017C0000015C00000D0
:1000D00013C0000011C000000FC000000DC00000E0
:1000E0000BC0000011241FBECFEFD1E2DEBFCDBF99
:1000F00000E00CBF02D085C083CFCF93DF93CDB794
:10010000DEB728970FB6F894DEBF0FBECDBF06E06E
:1001100023E230E044E250E065E270E0CE01019677
:1001200011D060E0CE01019618D0CE0101965BD0CF
:100130002FEF83ED90E3215080409040E1F700C025
:100140000000F3CF0F93FC017183608353834283DC
:100150003583248306830F910895FC01678366230A
:1001600019F06130B1F02AC081E090E0068002C051
:10017000880F991F0A94E2F78095A081B1819C9124
:1001800098239C930280F381E02D908189238083C2
:10019000089581E090E0068002C0880F991F0A94BC
:1001A000E2F7A281B3819C91982B9C93809501905A
:1001B000F081E02D908189238083089581E090E093
:1001C000068002C0880F991F0A94E2F7A081B181CE
:1001D0009C91982B9C9380950280F381E02D9081D7
:1001E000892380830895DC0117962C91222311F036
:1001F000223031F4DC011496ED91FC911597808149
:060200000895F894FFCF01
:00000001FF
